{
    "contractName": "Bank",
    "abi": [
        {
            "inputs": [],
            "stateMutability": "nonpayable",
            "type": "constructor"
        },
        {
            "anonymous": false,
            "inputs": [
                {
                    "indexed": false,
                    "internalType": "address",
                    "name": "user",
                    "type": "address"
                },
                {
                    "indexed": false,
                    "internalType": "uint256",
                    "name": "amount",
                    "type": "uint256"
                }
            ],
            "name": "Banlances",
            "type": "event"
        },
        {
            "anonymous": false,
            "inputs": [
                {
                    "indexed": false,
                    "internalType": "address",
                    "name": "user",
                    "type": "address"
                },
                {
                    "indexed": false,
                    "internalType": "uint256",
                    "name": "amount",
                    "type": "uint256"
                }
            ],
            "name": "Deposit",
            "type": "event"
        },
        {
            "anonymous": false,
            "inputs": [
                {
                    "indexed": false,
                    "internalType": "address",
                    "name": "user",
                    "type": "address"
                },
                {
                    "indexed": false,
                    "internalType": "uint256",
                    "name": "bankBalance",
                    "type": "uint256"
                },
                {
                    "indexed": false,
                    "internalType": "uint256",
                    "name": "adminBanlance",
                    "type": "uint256"
                }
            ],
            "name": "Withdraw",
            "type": "event"
        },
        {
            "stateMutability": "payable",
            "type": "fallback"
        },
        {
            "inputs": [],
            "name": "deposit",
            "outputs": [],
            "stateMutability": "payable",
            "type": "function"
        },
        {
            "inputs": [],
            "name": "getBankBalance",
            "outputs": [
                {
                    "internalType": "uint256",
                    "name": "",
                    "type": "uint256"
                }
            ],
            "stateMutability": "view",
            "type": "function"
        },
        {
            "inputs": [],
            "name": "getOwnerAdmin",
            "outputs": [
                {
                    "internalType": "address",
                    "name": "",
                    "type": "address"
                }
            ],
            "stateMutability": "view",
            "type": "function"
        },
        {
            "inputs": [],
            "name": "getTopDepositors",
            "outputs": [
                {
                    "internalType": "address[3]",
                    "name": "",
                    "type": "address[3]"
                }
            ],
            "stateMutability": "view",
            "type": "function"
        },
        {
            "inputs": [
                {
                    "internalType": "address",
                    "name": "user",
                    "type": "address"
                }
            ],
            "name": "getUserBalance",
            "outputs": [
                {
                    "internalType": "uint256",
                    "name": "",
                    "type": "uint256"
                }
            ],
            "stateMutability": "view",
            "type": "function"
        },
        {
            "inputs": [
                {
                    "internalType": "uint256",
                    "name": "amount",
                    "type": "uint256"
                }
            ],
            "name": "withdraw",
            "outputs": [],
            "stateMutability": "nonpayable",
            "type": "function"
        },
        {
            "stateMutability": "payable",
            "type": "receive"
        }
    ],
    "bytecode": "608060405234801561000f575f80fd5b505f80546001600160a01b031916331790556108278061002e5f395ff3fe608060405260043610610058575f3560e01c80632e1a7d4d1461006f578063477348921461008e5780637b83b50b146100d557806381454f71146100e757806384c368fd14610108578063d0e30db01461006757610067565b366100675761006561012e565b005b61006561012e565b34801561007a575f80fd5b506100656100893660046106f3565b61023f565b348015610099575f80fd5b506100c26100a836600461070a565b6001600160a01b03165f9081526001602052604090205490565b6040519081526020015b60405180910390f35b3480156100e0575f80fd5b50476100c2565b3480156100f2575f80fd5b506100fb6103ad565b6040516100cc9190610737565b348015610113575f80fd5b505f546040516001600160a01b0390911681526020016100cc565b600134116101915760405162461bcd60e51b815260206004820152602560248201527f4465706f73697420616d6f756e74206d75737420626520677265617465722074604482015264068616e20360dc1b60648201526084015b60405180910390fd5b335f90815260016020526040812080543492906101af908490610784565b909155506101be9050336103f2565b604080513381523460208201527fe1fffcc4923d04b559f4d29a8bfc6cda04eb5b0d3c460751c2402c5c5cc9109c910160405180910390a1335f81815260016020908152604091829020548251938452908301527fd440b8c34ae657af75f82c57135a7716494610f148346906f9d623f8aeec4b83910160405180910390a1565b5f546001600160a01b031633146102985760405162461bcd60e51b815260206004820181905260248201527f4f6e6c792061646d696e2063616e20646f2074686973206f7065726174696f6e6044820152606401610188565b47818110156103035760405162461bcd60e51b815260206004820152603160248201527f42616e6b2062616c616e6365206d7573742062652067726561746572207468616044820152701b881dda5d1a191c985b48185b5bdd5b9d607a1b6064820152608401610188565b5f80546040516001600160a01b039091169184156108fc02918591818181858888f19350505050158015610339573d5f803e3d5ffd5b507ff279e6a1f5e320cca91135676d9cb6e44ca8a08c0b88342bcdb1144f6511b56861036c5f546001600160a01b031690565b8261037e5f546001600160a01b031690565b604080516001600160a01b03948516815260208101939093529216318183015290519081900360600190a15050565b6103b56106d5565b6040805160608101918290529060029060039082845b81546001600160a01b031681526001909101906020018083116103cb575050505050905090565b5f5b600381101561044857816001600160a01b03166002826003811061041a5761041a61079d565b01546001600160a01b03160361043657610432610560565b5050565b80610440816107b1565b9150506103f4565b505f5b60038110156104325760015f6002836003811061046a5761046a61079d565b01546001600160a01b03908116825260208083019390935260409182015f9081205491861681526001909352912054111561054e5760025b818111156105165760026104b76001836107c9565b600381106104c7576104c761079d565b01546001600160a01b0316600282600381106104e5576104e561079d565b0180546001600160a01b0319166001600160a01b03929092169190911790558061050e816107dc565b9150506104a2565b50816002826003811061052b5761052b61079d565b0180546001600160a01b0319166001600160a01b03929092169190911790555050565b80610558816107b1565b91505061044b565b5f5b60028110156106d2575f5b6105788260026107c9565b8110156106bf5760015f600261058e8484610784565b6003811061059e5761059e61079d565b01546001600160a01b0316815260208101919091526040015f9081205490600190600284600381106105d2576105d261079d565b01546001600160a01b0316815260208101919091526040015f205410156106ad575f600282600381106106075761060761079d565b01546001600160a01b031690506002610621836001610784565b600381106106315761063161079d565b01546001600160a01b03166002836003811061064f5761064f61079d565b0180546001600160a01b0319166001600160a01b039290921691909117905580600261067c846001610784565b6003811061068c5761068c61079d565b0180546001600160a01b0319166001600160a01b0392909216919091179055505b806106b7816107b1565b91505061056d565b50806106ca816107b1565b915050610562565b50565b60405180606001604052806003906020820280368337509192915050565b5f60208284031215610703575f80fd5b5035919050565b5f6020828403121561071a575f80fd5b81356001600160a01b0381168114610730575f80fd5b9392505050565b6060810181835f5b60038110156107675781516001600160a01b031683526020928301929091019060010161073f565b50505092915050565b634e487b7160e01b5f52601160045260245ffd5b8082018082111561079757610797610770565b92915050565b634e487b7160e01b5f52603260045260245ffd5b5f600182016107c2576107c2610770565b5060010190565b8181038181111561079757610797610770565b5f816107ea576107ea610770565b505f19019056fea2646970667358221220ce23b0f477252b08de0e17ff55d4a0a0932b7485d840b169261e99788e8048ab64736f6c63430008140033",
    "sourcePath": "/Users/chenjiawei/Learning/Program/web3/web3-study/basis/src/sol/Bank.sol",
    "compiler": {
        "name": "solc",
        "version": "0.8.20+commit.a1b79de6"
    },
    "functionHashes": {
        "deposit()": "d0e30db0",
        "getBankBalance()": "7b83b50b",
        "getOwnerAdmin()": "84c368fd",
        "getTopDepositors()": "81454f71",
        "getUserBalance(address)": "47734892",
        "withdraw(uint256)": "2e1a7d4d"
    },
    "gasEstimates": {
        "creation": {
            "codeDepositCost": "417400",
            "executionCost": "24687",
            "totalCost": "442087"
        },
        "external": {
            "": "infinite",
            "deposit()": "infinite",
            "getBankBalance()": "204",
            "getOwnerAdmin()": "2365",
            "getTopDepositors()": "infinite",
            "getUserBalance(address)": "2488",
            "withdraw(uint256)": "infinite"
        },
        "internal": {
            "_sortTopDepositors()": "infinite",
            "_updateTopDepositors(address)": "infinite"
        }
    }
}