{
    "contractName": "BigBank",
    "abi": [
        {
            "anonymous": false,
            "inputs": [
                {
                    "indexed": false,
                    "internalType": "address",
                    "name": "user",
                    "type": "address"
                },
                {
                    "indexed": false,
                    "internalType": "uint256",
                    "name": "amount",
                    "type": "uint256"
                }
            ],
            "name": "Banlances",
            "type": "event"
        },
        {
            "anonymous": false,
            "inputs": [
                {
                    "indexed": false,
                    "internalType": "address",
                    "name": "user",
                    "type": "address"
                },
                {
                    "indexed": false,
                    "internalType": "uint256",
                    "name": "amount",
                    "type": "uint256"
                }
            ],
            "name": "Deposit",
            "type": "event"
        },
        {
            "anonymous": false,
            "inputs": [
                {
                    "indexed": true,
                    "internalType": "address",
                    "name": "previousOwner",
                    "type": "address"
                },
                {
                    "indexed": true,
                    "internalType": "address",
                    "name": "newOwner",
                    "type": "address"
                }
            ],
            "name": "OwnershipTransferred",
            "type": "event"
        },
        {
            "anonymous": false,
            "inputs": [
                {
                    "indexed": false,
                    "internalType": "address",
                    "name": "user",
                    "type": "address"
                },
                {
                    "indexed": false,
                    "internalType": "uint256",
                    "name": "bankBalance",
                    "type": "uint256"
                },
                {
                    "indexed": false,
                    "internalType": "uint256",
                    "name": "adminBanlance",
                    "type": "uint256"
                }
            ],
            "name": "Withdraw",
            "type": "event"
        },
        {
            "stateMutability": "payable",
            "type": "fallback"
        },
        {
            "inputs": [],
            "name": "deposit",
            "outputs": [],
            "stateMutability": "payable",
            "type": "function"
        },
        {
            "inputs": [],
            "name": "getBankBalance",
            "outputs": [
                {
                    "internalType": "uint256",
                    "name": "",
                    "type": "uint256"
                }
            ],
            "stateMutability": "view",
            "type": "function"
        },
        {
            "inputs": [],
            "name": "getOwnerAdmin",
            "outputs": [
                {
                    "internalType": "address",
                    "name": "",
                    "type": "address"
                }
            ],
            "stateMutability": "view",
            "type": "function"
        },
        {
            "inputs": [],
            "name": "getTopDepositors",
            "outputs": [
                {
                    "internalType": "address[3]",
                    "name": "",
                    "type": "address[3]"
                }
            ],
            "stateMutability": "view",
            "type": "function"
        },
        {
            "inputs": [
                {
                    "internalType": "address",
                    "name": "user",
                    "type": "address"
                }
            ],
            "name": "getUserBalance",
            "outputs": [
                {
                    "internalType": "uint256",
                    "name": "",
                    "type": "uint256"
                }
            ],
            "stateMutability": "view",
            "type": "function"
        },
        {
            "inputs": [
                {
                    "internalType": "address",
                    "name": "newOwner",
                    "type": "address"
                }
            ],
            "name": "transferOwnership",
            "outputs": [],
            "stateMutability": "nonpayable",
            "type": "function"
        },
        {
            "inputs": [
                {
                    "internalType": "uint256",
                    "name": "amount",
                    "type": "uint256"
                }
            ],
            "name": "withdraw",
            "outputs": [],
            "stateMutability": "nonpayable",
            "type": "function"
        },
        {
            "stateMutability": "payable",
            "type": "receive"
        }
    ],
    "bytecode": "608060405234801561000f575f80fd5b505f80546001600160a01b031916331790556109d78061002e5f395ff3fe608060405260043610610073575f3560e01c806381454f711161004d57806381454f711461010257806384c368fd14610123578063d0e30db014610082578063f2fde38b1461014957610082565b80632e1a7d4d1461008a57806347734892146100a95780637b83b50b146100f057610082565b3661008257610080610168565b005b610080610168565b348015610095575f80fd5b506100806100a43660046108a3565b6101e5565b3480156100b4575f80fd5b506100dd6100c33660046108ba565b6001600160a01b03165f9081526001602052604090205490565b6040519081526020015b60405180910390f35b3480156100fb575f80fd5b50476100dd565b34801561010d575f80fd5b50610116610353565b6040516100e791906108e7565b34801561012e575f80fd5b505f546040516001600160a01b0390911681526020016100e7565b348015610154575f80fd5b506100806101633660046108ba565b610398565b66038d7ea4c6800034116101db5760405162461bcd60e51b815260206004820152602f60248201527f4465706f73697420616d6f756e74206d7573742062652067726561746572207460448201526e3430b71018171818189032ba3432b960891b60648201526084015b60405180910390fd5b6101e3610496565b565b5f546001600160a01b0316331461023e5760405162461bcd60e51b815260206004820181905260248201527f4f6e6c792061646d696e2063616e20646f2074686973206f7065726174696f6e60448201526064016101d2565b47818110156102a95760405162461bcd60e51b815260206004820152603160248201527f42616e6b2062616c616e6365206d7573742062652067726561746572207468616044820152701b881dda5d1a191c985b48185b5bdd5b9d607a1b60648201526084016101d2565b5f80546040516001600160a01b039091169184156108fc02918591818181858888f193505050501580156102df573d5f803e3d5ffd5b507ff279e6a1f5e320cca91135676d9cb6e44ca8a08c0b88342bcdb1144f6511b5686103125f546001600160a01b031690565b826103245f546001600160a01b031690565b604080516001600160a01b03948516815260208101939093529216318183015290519081900360600190a15050565b61035b610885565b6040805160608101918290529060029060039082845b81546001600160a01b03168152600190910190602001808311610371575050505050905090565b5f546001600160a01b031633146103f15760405162461bcd60e51b815260206004820181905260248201527f4f6e6c792061646d696e2063616e20646f2074686973206f7065726174696f6e60448201526064016101d2565b6001600160a01b0381166104475760405162461bcd60e51b815260206004820181905260248201527f6e65774f776e6572206d75737420626520612076616c6964206164647265737360448201526064016101d2565b5f80546001600160a01b038381166001600160a01b0319831681178455604051919092169283917f8be0079c531659141344cd1fd0a4f28419497f9722a3daafe3b4186f6b6457e09190a35050565b600134116104f45760405162461bcd60e51b815260206004820152602560248201527f4465706f73697420616d6f756e74206d75737420626520677265617465722074604482015264068616e20360dc1b60648201526084016101d2565b335f9081526001602052604081208054349290610512908490610934565b909155506105219050336105a2565b604080513381523460208201527fe1fffcc4923d04b559f4d29a8bfc6cda04eb5b0d3c460751c2402c5c5cc9109c910160405180910390a1335f81815260016020908152604091829020548251938452908301527fd440b8c34ae657af75f82c57135a7716494610f148346906f9d623f8aeec4b83910160405180910390a1565b5f5b60038110156105f857816001600160a01b0316600282600381106105ca576105ca61094d565b01546001600160a01b0316036105e6576105e2610710565b5050565b806105f081610961565b9150506105a4565b505f5b60038110156105e25760015f6002836003811061061a5761061a61094d565b01546001600160a01b03908116825260208083019390935260409182015f908120549186168152600190935291205411156106fe5760025b818111156106c6576002610667600183610979565b600381106106775761067761094d565b01546001600160a01b0316600282600381106106955761069561094d565b0180546001600160a01b0319166001600160a01b0392909216919091179055806106be8161098c565b915050610652565b5081600282600381106106db576106db61094d565b0180546001600160a01b0319166001600160a01b03929092169190911790555050565b8061070881610961565b9150506105fb565b5f5b6002811015610882575f5b610728826002610979565b81101561086f5760015f600261073e8484610934565b6003811061074e5761074e61094d565b01546001600160a01b0316815260208101919091526040015f9081205490600190600284600381106107825761078261094d565b01546001600160a01b0316815260208101919091526040015f2054101561085d575f600282600381106107b7576107b761094d565b01546001600160a01b0316905060026107d1836001610934565b600381106107e1576107e161094d565b01546001600160a01b0316600283600381106107ff576107ff61094d565b0180546001600160a01b0319166001600160a01b039290921691909117905580600261082c846001610934565b6003811061083c5761083c61094d565b0180546001600160a01b0319166001600160a01b0392909216919091179055505b8061086781610961565b91505061071d565b508061087a81610961565b915050610712565b50565b60405180606001604052806003906020820280368337509192915050565b5f602082840312156108b3575f80fd5b5035919050565b5f602082840312156108ca575f80fd5b81356001600160a01b03811681146108e0575f80fd5b9392505050565b6060810181835f5b60038110156109175781516001600160a01b03168352602092830192909101906001016108ef565b50505092915050565b634e487b7160e01b5f52601160045260245ffd5b8082018082111561094757610947610920565b92915050565b634e487b7160e01b5f52603260045260245ffd5b5f6001820161097257610972610920565b5060010190565b8181038181111561094757610947610920565b5f8161099a5761099a610920565b505f19019056fea2646970667358221220d80c2a4b34ebd77dfe43766a9fedf67aa7bd544f1a60eb7eefcba7e59a691b8a64736f6c63430008140033",
    "sourcePath": "/Users/chenjiawei/Learning/Program/web3/web3-study/basis/src/sol/BigBank.sol",
    "compiler": {
        "name": "solc",
        "version": "0.8.20+commit.a1b79de6"
    },
    "functionHashes": {
        "deposit()": "d0e30db0",
        "getBankBalance()": "7b83b50b",
        "getOwnerAdmin()": "84c368fd",
        "getTopDepositors()": "81454f71",
        "getUserBalance(address)": "47734892",
        "transferOwnership(address)": "f2fde38b",
        "withdraw(uint256)": "2e1a7d4d"
    },
    "gasEstimates": {
        "creation": {
            "codeDepositCost": "503800",
            "executionCost": "24769",
            "totalCost": "528569"
        },
        "external": {
            "": "infinite",
            "deposit()": "infinite",
            "getBankBalance()": "227",
            "getOwnerAdmin()": "2321",
            "getTopDepositors()": "infinite",
            "getUserBalance(address)": "2511",
            "transferOwnership(address)": "28307",
            "withdraw(uint256)": "infinite"
        }
    }
}