{
    "contractName": "MyERC20",
    "abi": [
        {
            "inputs": [],
            "stateMutability": "nonpayable",
            "type": "constructor"
        },
        {
            "inputs": [
                {
                    "internalType": "address",
                    "name": "spender",
                    "type": "address"
                },
                {
                    "internalType": "uint256",
                    "name": "allowance",
                    "type": "uint256"
                },
                {
                    "internalType": "uint256",
                    "name": "needed",
                    "type": "uint256"
                }
            ],
            "name": "ERC20InsufficientAllowance",
            "type": "error"
        },
        {
            "inputs": [
                {
                    "internalType": "address",
                    "name": "sender",
                    "type": "address"
                },
                {
                    "internalType": "uint256",
                    "name": "balance",
                    "type": "uint256"
                },
                {
                    "internalType": "uint256",
                    "name": "needed",
                    "type": "uint256"
                }
            ],
            "name": "ERC20InsufficientBalance",
            "type": "error"
        },
        {
            "inputs": [
                {
                    "internalType": "address",
                    "name": "approver",
                    "type": "address"
                }
            ],
            "name": "ERC20InvalidApprover",
            "type": "error"
        },
        {
            "inputs": [
                {
                    "internalType": "address",
                    "name": "receiver",
                    "type": "address"
                }
            ],
            "name": "ERC20InvalidReceiver",
            "type": "error"
        },
        {
            "inputs": [
                {
                    "internalType": "address",
                    "name": "sender",
                    "type": "address"
                }
            ],
            "name": "ERC20InvalidSender",
            "type": "error"
        },
        {
            "inputs": [
                {
                    "internalType": "address",
                    "name": "spender",
                    "type": "address"
                }
            ],
            "name": "ERC20InvalidSpender",
            "type": "error"
        },
        {
            "anonymous": false,
            "inputs": [
                {
                    "indexed": true,
                    "internalType": "address",
                    "name": "owner",
                    "type": "address"
                },
                {
                    "indexed": true,
                    "internalType": "address",
                    "name": "spender",
                    "type": "address"
                },
                {
                    "indexed": false,
                    "internalType": "uint256",
                    "name": "value",
                    "type": "uint256"
                }
            ],
            "name": "Approval",
            "type": "event"
        },
        {
            "anonymous": false,
            "inputs": [
                {
                    "indexed": true,
                    "internalType": "address",
                    "name": "from",
                    "type": "address"
                },
                {
                    "indexed": true,
                    "internalType": "address",
                    "name": "to",
                    "type": "address"
                },
                {
                    "indexed": false,
                    "internalType": "uint256",
                    "name": "value",
                    "type": "uint256"
                }
            ],
            "name": "Transfer",
            "type": "event"
        },
        {
            "inputs": [
                {
                    "internalType": "address",
                    "name": "owner",
                    "type": "address"
                },
                {
                    "internalType": "address",
                    "name": "spender",
                    "type": "address"
                }
            ],
            "name": "allowance",
            "outputs": [
                {
                    "internalType": "uint256",
                    "name": "",
                    "type": "uint256"
                }
            ],
            "stateMutability": "view",
            "type": "function"
        },
        {
            "inputs": [
                {
                    "internalType": "address",
                    "name": "spender",
                    "type": "address"
                },
                {
                    "internalType": "uint256",
                    "name": "value",
                    "type": "uint256"
                }
            ],
            "name": "approve",
            "outputs": [
                {
                    "internalType": "bool",
                    "name": "",
                    "type": "bool"
                }
            ],
            "stateMutability": "nonpayable",
            "type": "function"
        },
        {
            "inputs": [
                {
                    "internalType": "address",
                    "name": "account",
                    "type": "address"
                }
            ],
            "name": "balanceOf",
            "outputs": [
                {
                    "internalType": "uint256",
                    "name": "",
                    "type": "uint256"
                }
            ],
            "stateMutability": "view",
            "type": "function"
        },
        {
            "inputs": [],
            "name": "decimals",
            "outputs": [
                {
                    "internalType": "uint8",
                    "name": "",
                    "type": "uint8"
                }
            ],
            "stateMutability": "view",
            "type": "function"
        },
        {
            "inputs": [],
            "name": "name",
            "outputs": [
                {
                    "internalType": "string",
                    "name": "",
                    "type": "string"
                }
            ],
            "stateMutability": "view",
            "type": "function"
        },
        {
            "inputs": [],
            "name": "symbol",
            "outputs": [
                {
                    "internalType": "string",
                    "name": "",
                    "type": "string"
                }
            ],
            "stateMutability": "view",
            "type": "function"
        },
        {
            "inputs": [],
            "name": "totalSupply",
            "outputs": [
                {
                    "internalType": "uint256",
                    "name": "",
                    "type": "uint256"
                }
            ],
            "stateMutability": "view",
            "type": "function"
        },
        {
            "inputs": [
                {
                    "internalType": "address",
                    "name": "to",
                    "type": "address"
                },
                {
                    "internalType": "uint256",
                    "name": "value",
                    "type": "uint256"
                }
            ],
            "name": "transfer",
            "outputs": [
                {
                    "internalType": "bool",
                    "name": "",
                    "type": "bool"
                }
            ],
            "stateMutability": "nonpayable",
            "type": "function"
        },
        {
            "inputs": [
                {
                    "internalType": "address",
                    "name": "recipient",
                    "type": "address"
                },
                {
                    "internalType": "uint256",
                    "name": "amount",
                    "type": "uint256"
                }
            ],
            "name": "transferAndCall",
            "outputs": [
                {
                    "internalType": "bool",
                    "name": "",
                    "type": "bool"
                }
            ],
            "stateMutability": "nonpayable",
            "type": "function"
        },
        {
            "inputs": [
                {
                    "internalType": "address",
                    "name": "from",
                    "type": "address"
                },
                {
                    "internalType": "address",
                    "name": "to",
                    "type": "address"
                },
                {
                    "internalType": "uint256",
                    "name": "value",
                    "type": "uint256"
                }
            ],
            "name": "transferFrom",
            "outputs": [
                {
                    "internalType": "bool",
                    "name": "",
                    "type": "bool"
                }
            ],
            "stateMutability": "nonpayable",
            "type": "function"
        }
    ],
    "bytecode": "608060405234801562000010575f80fd5b506040518060400160405280600781526020016604d7945524332360cc1b81525060405180604001604052806003815260200162434a5760e81b81525081600390816200005e9190620002c0565b5060046200006d8282620002c0565b505050620000a63362000085620000ac60201b60201c565b6200009290600a62000497565b620000a090612710620004ae565b620000b1565b620004de565b601290565b6001600160a01b038216620000e05760405163ec442f0560e01b81525f60048201526024015b60405180910390fd5b620000ed5f8383620000f1565b5050565b6001600160a01b0383166200011f578060025f828254620001139190620004c8565b90915550620001919050565b6001600160a01b0383165f9081526020819052604090205481811015620001735760405163391434e360e21b81526001600160a01b03851660048201526024810182905260448101839052606401620000d7565b6001600160a01b0384165f9081526020819052604090209082900390555b6001600160a01b038216620001af57600280548290039055620001cd565b6001600160a01b0382165f9081526020819052604090208054820190555b816001600160a01b0316836001600160a01b03167fddf252ad1be2c89b69c2b068fc378daa952ba7f163c4a11628f55a4df523b3ef836040516200021391815260200190565b60405180910390a3505050565b634e487b7160e01b5f52604160045260245ffd5b600181811c908216806200024957607f821691505b6020821081036200026857634e487b7160e01b5f52602260045260245ffd5b50919050565b601f821115620002bb575f81815260208120601f850160051c81016020861015620002965750805b601f850160051c820191505b81811015620002b757828155600101620002a2565b5050505b505050565b81516001600160401b03811115620002dc57620002dc62000220565b620002f481620002ed845462000234565b846200026e565b602080601f8311600181146200032a575f8415620003125750858301515b5f19600386901b1c1916600185901b178555620002b7565b5f85815260208120601f198616915b828110156200035a5788860151825594840194600190910190840162000339565b50858210156200037857878501515f19600388901b60f8161c191681555b5050505050600190811b01905550565b634e487b7160e01b5f52601160045260245ffd5b600181815b80851115620003dc57815f1904821115620003c057620003c062000388565b80851615620003ce57918102915b93841c9390800290620003a1565b509250929050565b5f82620003f45750600162000491565b816200040257505f62000491565b81600181146200041b5760028114620004265762000446565b600191505062000491565b60ff8411156200043a576200043a62000388565b50506001821b62000491565b5060208310610133831016604e8410600b84101617156200046b575081810a62000491565b6200047783836200039c565b805f19048211156200048d576200048d62000388565b0290505b92915050565b5f620004a760ff841683620003e4565b9392505050565b808202811582820484141762000491576200049162000388565b8082018082111562000491576200049162000388565b61086a80620004ec5f395ff3fe608060405234801561000f575f80fd5b506004361061009b575f3560e01c8063313ce56711610063578063313ce5671461011857806370a082311461012757806395d89b411461014f578063a9059cbb14610157578063dd62ed3e1461016a575f80fd5b806306fdde031461009f578063095ea7b3146100bd5780631296ee62146100e057806318160ddd146100f357806323b872dd14610105575b5f80fd5b6100a76101a2565b6040516100b491906106a6565b60405180910390f35b6100d06100cb36600461070c565b610232565b60405190151581526020016100b4565b6100d06100ee36600461070c565b61024b565b6002545b6040519081526020016100b4565b6100d0610113366004610734565b610385565b604051601281526020016100b4565b6100f761013536600461076d565b6001600160a01b03165f9081526020819052604090205490565b6100a76103a8565b6100d061016536600461070c565b6103b7565b6100f761017836600461078d565b6001600160a01b039182165f90815260016020908152604080832093909416825291909152205490565b6060600380546101b1906107be565b80601f01602080910402602001604051908101604052809291908181526020018280546101dd906107be565b80156102285780601f106101ff57610100808354040283529160200191610228565b820191905f5260205f20905b81548152906001019060200180831161020b57829003601f168201915b5050505050905090565b5f3361023f8185856103c4565b60019150505b92915050565b5f6001600160a01b0383166102995760405162461bcd60e51b815260206004820152600f60248201526e696e76616c6964206164647265737360881b60448201526064015b60405180910390fd5b6102a43384846103d6565b823b1561037c57604051635849e0bd60e01b81523360048201526001600160a01b03841660248201819052604482018490525f91635849e0bd906064016020604051808303815f875af11580156102fd573d5f803e3d5ffd5b505050506040513d601f19601f8201168201806040525081019061032191906107f6565b90508061037a5760405162461bcd60e51b815260206004820152602160248201527f74686520636f6e7472616374207265636569766520746f6b656e206661696c656044820152601960fa1b6064820152608401610290565b505b50600192915050565b5f33610392858285610433565b61039d8585856103d6565b506001949350505050565b6060600480546101b1906107be565b5f3361023f8185856103d6565b6103d183838360016104ae565b505050565b6001600160a01b0383166103ff57604051634b637e8f60e11b81525f6004820152602401610290565b6001600160a01b0382166104285760405163ec442f0560e01b81525f6004820152602401610290565b6103d1838383610580565b6001600160a01b038381165f908152600160209081526040808320938616835292905220545f1981146104a8578181101561049a57604051637dc7a0d960e11b81526001600160a01b03841660048201526024810182905260448101839052606401610290565b6104a884848484035f6104ae565b50505050565b6001600160a01b0384166104d75760405163e602df0560e01b81525f6004820152602401610290565b6001600160a01b03831661050057604051634a1406b160e11b81525f6004820152602401610290565b6001600160a01b038085165f90815260016020908152604080832093871683529290522082905580156104a857826001600160a01b0316846001600160a01b03167f8c5be1e5ebec7d5bd14f71427d1e84f3dd0314c0f7b2291e5b200ac8c7c3b9258460405161057291815260200190565b60405180910390a350505050565b6001600160a01b0383166105aa578060025f82825461059f9190610815565b9091555061061a9050565b6001600160a01b0383165f90815260208190526040902054818110156105fc5760405163391434e360e21b81526001600160a01b03851660048201526024810182905260448101839052606401610290565b6001600160a01b0384165f9081526020819052604090209082900390555b6001600160a01b03821661063657600280548290039055610654565b6001600160a01b0382165f9081526020819052604090208054820190555b816001600160a01b0316836001600160a01b03167fddf252ad1be2c89b69c2b068fc378daa952ba7f163c4a11628f55a4df523b3ef8360405161069991815260200190565b60405180910390a3505050565b5f6020808352835180828501525f5b818110156106d1578581018301518582016040015282016106b5565b505f604082860101526040601f19601f8301168501019250505092915050565b80356001600160a01b0381168114610707575f80fd5b919050565b5f806040838503121561071d575f80fd5b610726836106f1565b946020939093013593505050565b5f805f60608486031215610746575f80fd5b61074f846106f1565b925061075d602085016106f1565b9150604084013590509250925092565b5f6020828403121561077d575f80fd5b610786826106f1565b9392505050565b5f806040838503121561079e575f80fd5b6107a7836106f1565b91506107b5602084016106f1565b90509250929050565b600181811c908216806107d257607f821691505b6020821081036107f057634e487b7160e01b5f52602260045260245ffd5b50919050565b5f60208284031215610806575f80fd5b81518015158114610786575f80fd5b8082018082111561024557634e487b7160e01b5f52601160045260245ffdfea2646970667358221220d2960dc30ae7991c6b780b662b8d29f8e20fdde8c131a0cce21ff51058d38c8f64736f6c63430008140033",
    "sourcePath": "/Users/chenjiawei/Learning/Program/web3/web3-study/basis/src/sol/MyERC20.sol",
    "compiler": {
        "name": "solc",
        "version": "0.8.20+commit.a1b79de6"
    },
    "functionHashes": {
        "allowance(address,address)": "dd62ed3e",
        "approve(address,uint256)": "095ea7b3",
        "balanceOf(address)": "70a08231",
        "decimals()": "313ce567",
        "name()": "06fdde03",
        "symbol()": "95d89b41",
        "totalSupply()": "18160ddd",
        "transfer(address,uint256)": "a9059cbb",
        "transferAndCall(address,uint256)": "1296ee62",
        "transferFrom(address,address,uint256)": "23b872dd"
    },
    "gasEstimates": {
        "creation": {
            "codeDepositCost": "430800",
            "executionCost": "infinite",
            "totalCost": "infinite"
        },
        "external": {
            "allowance(address,address)": "infinite",
            "approve(address,uint256)": "24735",
            "balanceOf(address)": "2559",
            "decimals()": "176",
            "name()": "infinite",
            "symbol()": "infinite",
            "totalSupply()": "2347",
            "transfer(address,uint256)": "51282",
            "transferAndCall(address,uint256)": "infinite",
            "transferFrom(address,address,uint256)": "infinite"
        },
        "internal": {
            "isContract(address)": "infinite"
        }
    }
}