{
    "contractName": "Ownable",
    "abi": [
        {
            "inputs": [],
            "stateMutability": "nonpayable",
            "type": "constructor"
        },
        {
            "stateMutability": "payable",
            "type": "fallback"
        },
        {
            "inputs": [
                {
                    "internalType": "address",
                    "name": "bankAddr",
                    "type": "address"
                },
                {
                    "internalType": "uint256",
                    "name": "amount",
                    "type": "uint256"
                }
            ],
            "name": "withdraw",
            "outputs": [],
            "stateMutability": "nonpayable",
            "type": "function"
        },
        {
            "stateMutability": "payable",
            "type": "receive"
        }
    ],
    "bytecode": "608060405234801561000f575f80fd5b505f80546001600160a01b031916331790556101628061002e5f395ff3fe60806040526004361061001e575f3560e01c8063f3fef3a31461002757005b3661002557005b005b348015610032575f80fd5b506100256100413660046100f7565b5f546001600160a01b0316331461009e5760405162461bcd60e51b815260206004820181905260248201527f4f6e6c792061646d696e2063616e20646f2074686973206f7065726174696f6e604482015260640160405180910390fd5b604051632e1a7d4d60e01b8152600481018290526001600160a01b03831690632e1a7d4d906024015f604051808303815f87803b1580156100dd575f80fd5b505af11580156100ef573d5f803e3d5ffd5b505050505050565b5f8060408385031215610108575f80fd5b82356001600160a01b038116811461011e575f80fd5b94602093909301359350505056fea26469706673582212209c4eb9a2a096cb9bd8e22449d3ac7e22b3b2e9a803c5d1ea2e1bdf5985be02c364736f6c63430008140033",
    "sourcePath": "/Users/chenjiawei/Learning/Program/web3/web3-study/basis/src/sol/Ownable.sol",
    "compiler": {
        "name": "solc",
        "version": "0.8.20+commit.a1b79de6"
    },
    "functionHashes": {
        "withdraw(address,uint256)": "f3fef3a3"
    },
    "gasEstimates": {
        "creation": {
            "codeDepositCost": "70800",
            "executionCost": "24355",
            "totalCost": "95155"
        },
        "external": {
            "": "72",
            "withdraw(address,uint256)": "infinite"
        }
    }
}