{
    "contractName": "MyNFT",
    "abi": [
        {
            "inputs": [],
            "stateMutability": "nonpayable",
            "type": "constructor"
        },
        {
            "inputs": [
                {
                    "internalType": "address",
                    "name": "sender",
                    "type": "address"
                },
                {
                    "internalType": "uint256",
                    "name": "tokenId",
                    "type": "uint256"
                },
                {
                    "internalType": "address",
                    "name": "owner",
                    "type": "address"
                }
            ],
            "name": "ERC721IncorrectOwner",
            "type": "error"
        },
        {
            "inputs": [
                {
                    "internalType": "address",
                    "name": "operator",
                    "type": "address"
                },
                {
                    "internalType": "uint256",
                    "name": "tokenId",
                    "type": "uint256"
                }
            ],
            "name": "ERC721InsufficientApproval",
            "type": "error"
        },
        {
            "inputs": [
                {
                    "internalType": "address",
                    "name": "approver",
                    "type": "address"
                }
            ],
            "name": "ERC721InvalidApprover",
            "type": "error"
        },
        {
            "inputs": [
                {
                    "internalType": "address",
                    "name": "operator",
                    "type": "address"
                }
            ],
            "name": "ERC721InvalidOperator",
            "type": "error"
        },
        {
            "inputs": [
                {
                    "internalType": "address",
                    "name": "owner",
                    "type": "address"
                }
            ],
            "name": "ERC721InvalidOwner",
            "type": "error"
        },
        {
            "inputs": [
                {
                    "internalType": "address",
                    "name": "receiver",
                    "type": "address"
                }
            ],
            "name": "ERC721InvalidReceiver",
            "type": "error"
        },
        {
            "inputs": [
                {
                    "internalType": "address",
                    "name": "sender",
                    "type": "address"
                }
            ],
            "name": "ERC721InvalidSender",
            "type": "error"
        },
        {
            "inputs": [
                {
                    "internalType": "uint256",
                    "name": "tokenId",
                    "type": "uint256"
                }
            ],
            "name": "ERC721NonexistentToken",
            "type": "error"
        },
        {
            "inputs": [
                {
                    "internalType": "address",
                    "name": "owner",
                    "type": "address"
                }
            ],
            "name": "OwnableInvalidOwner",
            "type": "error"
        },
        {
            "inputs": [
                {
                    "internalType": "address",
                    "name": "account",
                    "type": "address"
                }
            ],
            "name": "OwnableUnauthorizedAccount",
            "type": "error"
        },
        {
            "anonymous": false,
            "inputs": [
                {
                    "indexed": true,
                    "internalType": "address",
                    "name": "owner",
                    "type": "address"
                },
                {
                    "indexed": true,
                    "internalType": "address",
                    "name": "approved",
                    "type": "address"
                },
                {
                    "indexed": true,
                    "internalType": "uint256",
                    "name": "tokenId",
                    "type": "uint256"
                }
            ],
            "name": "Approval",
            "type": "event"
        },
        {
            "anonymous": false,
            "inputs": [
                {
                    "indexed": true,
                    "internalType": "address",
                    "name": "owner",
                    "type": "address"
                },
                {
                    "indexed": true,
                    "internalType": "address",
                    "name": "operator",
                    "type": "address"
                },
                {
                    "indexed": false,
                    "internalType": "bool",
                    "name": "approved",
                    "type": "bool"
                }
            ],
            "name": "ApprovalForAll",
            "type": "event"
        },
        {
            "anonymous": false,
            "inputs": [
                {
                    "indexed": false,
                    "internalType": "uint256",
                    "name": "_fromTokenId",
                    "type": "uint256"
                },
                {
                    "indexed": false,
                    "internalType": "uint256",
                    "name": "_toTokenId",
                    "type": "uint256"
                }
            ],
            "name": "BatchMetadataUpdate",
            "type": "event"
        },
        {
            "anonymous": false,
            "inputs": [
                {
                    "indexed": false,
                    "internalType": "uint256",
                    "name": "_tokenId",
                    "type": "uint256"
                }
            ],
            "name": "MetadataUpdate",
            "type": "event"
        },
        {
            "anonymous": false,
            "inputs": [
                {
                    "indexed": true,
                    "internalType": "address",
                    "name": "minter",
                    "type": "address"
                },
                {
                    "indexed": false,
                    "internalType": "uint256",
                    "name": "nonce",
                    "type": "uint256"
                },
                {
                    "indexed": true,
                    "internalType": "uint256",
                    "name": "tokenId",
                    "type": "uint256"
                }
            ],
            "name": "Mint",
            "type": "event"
        },
        {
            "anonymous": false,
            "inputs": [
                {
                    "indexed": true,
                    "internalType": "address",
                    "name": "previousOwner",
                    "type": "address"
                },
                {
                    "indexed": true,
                    "internalType": "address",
                    "name": "newOwner",
                    "type": "address"
                }
            ],
            "name": "OwnershipTransferred",
            "type": "event"
        },
        {
            "anonymous": false,
            "inputs": [
                {
                    "indexed": true,
                    "internalType": "address",
                    "name": "from",
                    "type": "address"
                },
                {
                    "indexed": true,
                    "internalType": "address",
                    "name": "to",
                    "type": "address"
                },
                {
                    "indexed": true,
                    "internalType": "uint256",
                    "name": "tokenId",
                    "type": "uint256"
                }
            ],
            "name": "Transfer",
            "type": "event"
        },
        {
            "inputs": [],
            "name": "TOKEN_LIMIT",
            "outputs": [
                {
                    "internalType": "uint256",
                    "name": "",
                    "type": "uint256"
                }
            ],
            "stateMutability": "view",
            "type": "function"
        },
        {
            "inputs": [
                {
                    "internalType": "address",
                    "name": "to",
                    "type": "address"
                },
                {
                    "internalType": "uint256",
                    "name": "tokenId",
                    "type": "uint256"
                }
            ],
            "name": "approve",
            "outputs": [],
            "stateMutability": "nonpayable",
            "type": "function"
        },
        {
            "inputs": [
                {
                    "internalType": "address",
                    "name": "owner",
                    "type": "address"
                }
            ],
            "name": "balanceOf",
            "outputs": [
                {
                    "internalType": "uint256",
                    "name": "",
                    "type": "uint256"
                }
            ],
            "stateMutability": "view",
            "type": "function"
        },
        {
            "inputs": [
                {
                    "internalType": "uint256",
                    "name": "tokenId",
                    "type": "uint256"
                }
            ],
            "name": "getApproved",
            "outputs": [
                {
                    "internalType": "address",
                    "name": "",
                    "type": "address"
                }
            ],
            "stateMutability": "view",
            "type": "function"
        },
        {
            "inputs": [
                {
                    "internalType": "address",
                    "name": "owner",
                    "type": "address"
                },
                {
                    "internalType": "address",
                    "name": "operator",
                    "type": "address"
                }
            ],
            "name": "isApprovedForAll",
            "outputs": [
                {
                    "internalType": "bool",
                    "name": "",
                    "type": "bool"
                }
            ],
            "stateMutability": "view",
            "type": "function"
        },
        {
            "inputs": [
                {
                    "internalType": "address",
                    "name": "user",
                    "type": "address"
                },
                {
                    "internalType": "string",
                    "name": "tokenURI",
                    "type": "string"
                }
            ],
            "name": "mint",
            "outputs": [
                {
                    "internalType": "uint256",
                    "name": "",
                    "type": "uint256"
                }
            ],
            "stateMutability": "payable",
            "type": "function"
        },
        {
            "inputs": [],
            "name": "name",
            "outputs": [
                {
                    "internalType": "string",
                    "name": "",
                    "type": "string"
                }
            ],
            "stateMutability": "view",
            "type": "function"
        },
        {
            "inputs": [],
            "name": "owner",
            "outputs": [
                {
                    "internalType": "address",
                    "name": "",
                    "type": "address"
                }
            ],
            "stateMutability": "view",
            "type": "function"
        },
        {
            "inputs": [
                {
                    "internalType": "uint256",
                    "name": "tokenId",
                    "type": "uint256"
                }
            ],
            "name": "ownerOf",
            "outputs": [
                {
                    "internalType": "address",
                    "name": "",
                    "type": "address"
                }
            ],
            "stateMutability": "view",
            "type": "function"
        },
        {
            "inputs": [],
            "name": "renounceOwnership",
            "outputs": [],
            "stateMutability": "nonpayable",
            "type": "function"
        },
        {
            "inputs": [
                {
                    "internalType": "address",
                    "name": "from",
                    "type": "address"
                },
                {
                    "internalType": "address",
                    "name": "to",
                    "type": "address"
                },
                {
                    "internalType": "uint256",
                    "name": "tokenId",
                    "type": "uint256"
                }
            ],
            "name": "safeTransferFrom",
            "outputs": [],
            "stateMutability": "nonpayable",
            "type": "function"
        },
        {
            "inputs": [
                {
                    "internalType": "address",
                    "name": "from",
                    "type": "address"
                },
                {
                    "internalType": "address",
                    "name": "to",
                    "type": "address"
                },
                {
                    "internalType": "uint256",
                    "name": "tokenId",
                    "type": "uint256"
                },
                {
                    "internalType": "bytes",
                    "name": "data",
                    "type": "bytes"
                }
            ],
            "name": "safeTransferFrom",
            "outputs": [],
            "stateMutability": "nonpayable",
            "type": "function"
        },
        {
            "inputs": [
                {
                    "internalType": "address",
                    "name": "operator",
                    "type": "address"
                },
                {
                    "internalType": "bool",
                    "name": "approved",
                    "type": "bool"
                }
            ],
            "name": "setApprovalForAll",
            "outputs": [],
            "stateMutability": "nonpayable",
            "type": "function"
        },
        {
            "inputs": [
                {
                    "internalType": "bytes4",
                    "name": "interfaceId",
                    "type": "bytes4"
                }
            ],
            "name": "supportsInterface",
            "outputs": [
                {
                    "internalType": "bool",
                    "name": "",
                    "type": "bool"
                }
            ],
            "stateMutability": "view",
            "type": "function"
        },
        {
            "inputs": [],
            "name": "symbol",
            "outputs": [
                {
                    "internalType": "string",
                    "name": "",
                    "type": "string"
                }
            ],
            "stateMutability": "view",
            "type": "function"
        },
        {
            "inputs": [
                {
                    "internalType": "uint256",
                    "name": "tokenId",
                    "type": "uint256"
                }
            ],
            "name": "tokenURI",
            "outputs": [
                {
                    "internalType": "string",
                    "name": "",
                    "type": "string"
                }
            ],
            "stateMutability": "view",
            "type": "function"
        },
        {
            "inputs": [
                {
                    "internalType": "address",
                    "name": "from",
                    "type": "address"
                },
                {
                    "internalType": "address",
                    "name": "to",
                    "type": "address"
                },
                {
                    "internalType": "uint256",
                    "name": "tokenId",
                    "type": "uint256"
                }
            ],
            "name": "transferFrom",
            "outputs": [],
            "stateMutability": "nonpayable",
            "type": "function"
        },
        {
            "inputs": [
                {
                    "internalType": "address",
                    "name": "newOwner",
                    "type": "address"
                }
            ],
            "name": "transferOwnership",
            "outputs": [],
            "stateMutability": "nonpayable",
            "type": "function"
        }
    ],
    "bytecode": "60806040525f60085534801562000014575f80fd5b503360405180604001604052806007815260200166434a574e46545360c81b81525060405180604001604052806003815260200162434a5760e81b815250815f9081620000629190620001a5565b506001620000718282620001a5565b5050506001600160a01b038116620000a257604051631e4fbdf760e01b81525f600482015260240160405180910390fd5b620000ad81620000b4565b506200026d565b600780546001600160a01b038381166001600160a01b0319831681179093556040519116919082907f8be0079c531659141344cd1fd0a4f28419497f9722a3daafe3b4186f6b6457e0905f90a35050565b634e487b7160e01b5f52604160045260245ffd5b600181811c908216806200012e57607f821691505b6020821081036200014d57634e487b7160e01b5f52602260045260245ffd5b50919050565b601f821115620001a0575f81815260208120601f850160051c810160208610156200017b5750805b601f850160051c820191505b818110156200019c5782815560010162000187565b5050505b505050565b81516001600160401b03811115620001c157620001c162000105565b620001d981620001d2845462000119565b8462000153565b602080601f8311600181146200020f575f8415620001f75750858301515b5f19600386901b1c1916600185901b1785556200019c565b5f85815260208120601f198616915b828110156200023f578886015182559484019460019091019084016200021e565b50858210156200025d57878501515f19600388901b60f8161c191681555b5050505050600190811b01905550565b611551806200027b5f395ff3fe608060405260043610610105575f3560e01c8063715018a611610092578063b88d4fde11610062578063b88d4fde146102b9578063c87b56dd146102d8578063d0def521146102f7578063e985e9c51461030a578063f2fde38b14610329575f80fd5b8063715018a6146102555780638da5cb5b1461026957806395d89b4114610286578063a22cb4651461029a575f80fd5b8063095ea7b3116100d8578063095ea7b3146101b857806323b872dd146101d957806342842e0e146101f85780636352211e1461021757806370a0823114610236575f80fd5b806301ffc9a714610109578063031bd4c41461013d57806306fdde0314610160578063081812fc14610181575b5f80fd5b348015610114575f80fd5b5061012861012336600461102b565b610348565b60405190151581526020015b60405180910390f35b348015610148575f80fd5b5061015261029a81565b604051908152602001610134565b34801561016b575f80fd5b50610174610372565b6040516101349190611093565b34801561018c575f80fd5b506101a061019b3660046110a5565b610401565b6040516001600160a01b039091168152602001610134565b3480156101c3575f80fd5b506101d76101d23660046110d7565b610428565b005b3480156101e4575f80fd5b506101d76101f33660046110ff565b610437565b348015610203575f80fd5b506101d76102123660046110ff565b6104c5565b348015610222575f80fd5b506101a06102313660046110a5565b6104e4565b348015610241575f80fd5b50610152610250366004611138565b6104ee565b348015610260575f80fd5b506101d7610533565b348015610274575f80fd5b506007546001600160a01b03166101a0565b348015610291575f80fd5b50610174610546565b3480156102a5575f80fd5b506101d76102b4366004611151565b610555565b3480156102c4575f80fd5b506101d76102d3366004611211565b610560565b3480156102e3575f80fd5b506101746102f23660046110a5565b610577565b610152610305366004611288565b610682565b348015610315575f80fd5b506101286103243660046112e6565b610764565b348015610334575f80fd5b506101d7610343366004611138565b610791565b5f6001600160e01b03198216632483248360e11b148061036c575061036c826107ce565b92915050565b60605f805461038090611317565b80601f01602080910402602001604051908101604052809291908181526020018280546103ac90611317565b80156103f75780601f106103ce576101008083540402835291602001916103f7565b820191905f5260205f20905b8154815290600101906020018083116103da57829003601f168201915b5050505050905090565b5f61040b8261081d565b505f828152600460205260409020546001600160a01b031661036c565b610433828233610855565b5050565b6001600160a01b03821661046557604051633250574960e11b81525f60048201526024015b60405180910390fd5b5f610471838333610862565b9050836001600160a01b0316816001600160a01b0316146104bf576040516364283d7b60e01b81526001600160a01b038086166004830152602482018490528216604482015260640161045c565b50505050565b6104df83838360405180602001604052805f815250610560565b505050565b5f61036c8261081d565b5f6001600160a01b038216610518576040516322718ad960e21b81525f600482015260240161045c565b506001600160a01b03165f9081526003602052604090205490565b61053b610954565b6105445f610981565b565b60606001805461038090611317565b6104333383836109d2565b61056b848484610437565b6104bf84848484610a70565b60606105828261081d565b505f828152600660205260408120805461059b90611317565b80601f01602080910402602001604051908101604052809291908181526020018280546105c790611317565b80156106125780601f106105e957610100808354040283529160200191610612565b820191905f5260205f20905b8154815290600101906020018083116105f557829003601f168201915b505050505090505f61062e60408051602081019091525f815290565b905080515f0361063f575092915050565b81511561067157808260405160200161065992919061134f565b60405160208183030381529060405292505050919050565b61067a84610b96565b949350505050565b5f61068b610954565b6008546040805160208101929092526bffffffffffffffffffffffff193360601b16908201524460548201524260748201525f9061029a90609401604051602081830303815290604052805190602001205f1c6106e8919061137d565b90506106f48482610c07565b6106fe8184610c20565b600160085f828254610710919061139c565b9250508190555080846001600160a01b03167f4c209b5fc8ad50758f13e2e1088ba56a560dff690a1c6fef26394f4c03821c4f60085460405161075591815260200190565b60405180910390a39392505050565b6001600160a01b039182165f90815260056020908152604080832093909416825291909152205460ff1690565b610799610954565b6001600160a01b0381166107c257604051631e4fbdf760e01b81525f600482015260240161045c565b6107cb81610981565b50565b5f6001600160e01b031982166380ac58cd60e01b14806107fe57506001600160e01b03198216635b5e139f60e01b145b8061036c57506301ffc9a760e01b6001600160e01b031983161461036c565b5f818152600260205260408120546001600160a01b03168061036c57604051637e27328960e01b81526004810184905260240161045c565b6104df8383836001610c6f565b5f828152600260205260408120546001600160a01b039081169083161561088e5761088e818486610d73565b6001600160a01b038116156108c8576108a95f855f80610c6f565b6001600160a01b0381165f90815260036020526040902080545f190190555b6001600160a01b038516156108f6576001600160a01b0385165f908152600360205260409020805460010190555b5f8481526002602052604080822080546001600160a01b0319166001600160a01b0389811691821790925591518793918516917fddf252ad1be2c89b69c2b068fc378daa952ba7f163c4a11628f55a4df523b3ef91a4949350505050565b6007546001600160a01b031633146105445760405163118cdaa760e01b815233600482015260240161045c565b600780546001600160a01b038381166001600160a01b0319831681179093556040519116919082907f8be0079c531659141344cd1fd0a4f28419497f9722a3daafe3b4186f6b6457e0905f90a35050565b6001600160a01b038216610a0457604051630b61174360e31b81526001600160a01b038316600482015260240161045c565b6001600160a01b038381165f81815260056020908152604080832094871680845294825291829020805460ff191686151590811790915591519182527f17307eab39ab6107e8899845ad3d59bd9653f200f220920489ca2b5937696c31910160405180910390a3505050565b6001600160a01b0383163b156104bf57604051630a85bd0160e11b81526001600160a01b0384169063150b7a0290610ab29033908890879087906004016113bb565b6020604051808303815f875af1925050508015610aec575060408051601f3d908101601f19168201909252610ae9918101906113f7565b60015b610b53573d808015610b19576040519150601f19603f3d011682016040523d82523d5f602084013e610b1e565b606091505b5080515f03610b4b57604051633250574960e11b81526001600160a01b038516600482015260240161045c565b805181602001fd5b6001600160e01b03198116630a85bd0160e11b14610b8f57604051633250574960e11b81526001600160a01b038516600482015260240161045c565b5050505050565b6060610ba18261081d565b505f610bb760408051602081019091525f815290565b90505f815111610bd55760405180602001604052805f815250610c00565b80610bdf84610dd7565b604051602001610bf092919061134f565b6040516020818303038152906040525b9392505050565b610433828260405180602001604052805f815250610e67565b5f828152600660205260409020610c37828261145f565b506040518281527ff8e1a15aba9398e019f0b49df1a4fde98ee17ae345cb5f6b5e2c27f5033e8ce79060200160405180910390a15050565b8080610c8357506001600160a01b03821615155b15610d44575f610c928461081d565b90506001600160a01b03831615801590610cbe5750826001600160a01b0316816001600160a01b031614155b8015610cd15750610ccf8184610764565b155b15610cfa5760405163a9fbf51f60e01b81526001600160a01b038416600482015260240161045c565b8115610d425783856001600160a01b0316826001600160a01b03167f8c5be1e5ebec7d5bd14f71427d1e84f3dd0314c0f7b2291e5b200ac8c7c3b92560405160405180910390a45b505b50505f90815260046020526040902080546001600160a01b0319166001600160a01b0392909216919091179055565b610d7e838383610e7d565b6104df576001600160a01b038316610dac57604051637e27328960e01b81526004810182905260240161045c565b60405163177e802f60e01b81526001600160a01b03831660048201526024810182905260440161045c565b60605f610de383610ede565b60010190505f8167ffffffffffffffff811115610e0257610e0261118a565b6040519080825280601f01601f191660200182016040528015610e2c576020820181803683370190505b5090508181016020015b5f19016f181899199a1a9b1b9c1cb0b131b232b360811b600a86061a8153600a8504945084610e3657509392505050565b610e718383610fb5565b6104df5f848484610a70565b5f6001600160a01b0383161580159061067a5750826001600160a01b0316846001600160a01b03161480610eb65750610eb68484610764565b8061067a5750505f908152600460205260409020546001600160a01b03908116911614919050565b5f8072184f03e93ff9f4daa797ed6e38ed64bf6a1f0160401b8310610f1c5772184f03e93ff9f4daa797ed6e38ed64bf6a1f0160401b830492506040015b6d04ee2d6d415b85acef81000000008310610f48576d04ee2d6d415b85acef8100000000830492506020015b662386f26fc100008310610f6657662386f26fc10000830492506010015b6305f5e1008310610f7e576305f5e100830492506008015b6127108310610f9257612710830492506004015b60648310610fa4576064830492506002015b600a831061036c5760010192915050565b6001600160a01b038216610fde57604051633250574960e11b81525f600482015260240161045c565b5f610fea83835f610862565b90506001600160a01b038116156104df576040516339e3563760e11b81525f600482015260240161045c565b6001600160e01b0319811681146107cb575f80fd5b5f6020828403121561103b575f80fd5b8135610c0081611016565b5f5b83811015611060578181015183820152602001611048565b50505f910152565b5f815180845261107f816020860160208601611046565b601f01601f19169290920160200192915050565b602081525f610c006020830184611068565b5f602082840312156110b5575f80fd5b5035919050565b80356001600160a01b03811681146110d2575f80fd5b919050565b5f80604083850312156110e8575f80fd5b6110f1836110bc565b946020939093013593505050565b5f805f60608486031215611111575f80fd5b61111a846110bc565b9250611128602085016110bc565b9150604084013590509250925092565b5f60208284031215611148575f80fd5b610c00826110bc565b5f8060408385031215611162575f80fd5b61116b836110bc565b91506020830135801515811461117f575f80fd5b809150509250929050565b634e487b7160e01b5f52604160045260245ffd5b5f67ffffffffffffffff808411156111b8576111b861118a565b604051601f8501601f19908116603f011681019082821181831017156111e0576111e061118a565b816040528093508581528686860111156111f8575f80fd5b858560208301375f602087830101525050509392505050565b5f805f8060808587031215611224575f80fd5b61122d856110bc565b935061123b602086016110bc565b925060408501359150606085013567ffffffffffffffff81111561125d575f80fd5b8501601f8101871361126d575f80fd5b61127c8782356020840161119e565b91505092959194509250565b5f8060408385031215611299575f80fd5b6112a2836110bc565b9150602083013567ffffffffffffffff8111156112bd575f80fd5b8301601f810185136112cd575f80fd5b6112dc8582356020840161119e565b9150509250929050565b5f80604083850312156112f7575f80fd5b611300836110bc565b915061130e602084016110bc565b90509250929050565b600181811c9082168061132b57607f821691505b60208210810361134957634e487b7160e01b5f52602260045260245ffd5b50919050565b5f8351611360818460208801611046565b835190830190611374818360208801611046565b01949350505050565b5f8261139757634e487b7160e01b5f52601260045260245ffd5b500690565b8082018082111561036c57634e487b7160e01b5f52601160045260245ffd5b6001600160a01b03858116825284166020820152604081018390526080606082018190525f906113ed90830184611068565b9695505050505050565b5f60208284031215611407575f80fd5b8151610c0081611016565b601f8211156104df575f81815260208120601f850160051c810160208610156114385750805b601f850160051c820191505b8181101561145757828155600101611444565b505050505050565b815167ffffffffffffffff8111156114795761147961118a565b61148d816114878454611317565b84611412565b602080601f8311600181146114c0575f84156114a95750858301515b5f19600386901b1c1916600185901b178555611457565b5f85815260208120601f198616915b828110156114ee578886015182559484019460019091019084016114cf565b508582101561150b57878501515f19600388901b60f8161c191681555b5050505050600190811b0190555056fea264697066735822122018a6632447fe920445289c0076f8c573df9c704fe566c17dbedc7fc4d64a5a5f64736f6c63430008140033",
    "sourcePath": "/Users/chenjiawei/Learning/Program/web3/web3-study/basis/src/sol/NFT/MyNFT.sol",
    "compiler": {
        "name": "solc",
        "version": "0.8.20+commit.a1b79de6"
    },
    "functionHashes": {
        "TOKEN_LIMIT()": "031bd4c4",
        "approve(address,uint256)": "095ea7b3",
        "balanceOf(address)": "70a08231",
        "getApproved(uint256)": "081812fc",
        "isApprovedForAll(address,address)": "e985e9c5",
        "mint(address,string)": "d0def521",
        "name()": "06fdde03",
        "owner()": "8da5cb5b",
        "ownerOf(uint256)": "6352211e",
        "renounceOwnership()": "715018a6",
        "safeTransferFrom(address,address,uint256)": "42842e0e",
        "safeTransferFrom(address,address,uint256,bytes)": "b88d4fde",
        "setApprovalForAll(address,bool)": "a22cb465",
        "supportsInterface(bytes4)": "01ffc9a7",
        "symbol()": "95d89b41",
        "tokenURI(uint256)": "c87b56dd",
        "transferFrom(address,address,uint256)": "23b872dd",
        "transferOwnership(address)": "f2fde38b"
    },
    "gasEstimates": {
        "creation": {
            "codeDepositCost": "1091400",
            "executionCost": "infinite",
            "totalCost": "infinite"
        },
        "external": {
            "TOKEN_LIMIT()": "240",
            "approve(address,uint256)": "31464",
            "balanceOf(address)": "2696",
            "getApproved(uint256)": "infinite",
            "isApprovedForAll(address,address)": "infinite",
            "mint(address,string)": "infinite",
            "name()": "infinite",
            "owner()": "2375",
            "ownerOf(uint256)": "infinite",
            "renounceOwnership()": "infinite",
            "safeTransferFrom(address,address,uint256)": "infinite",
            "safeTransferFrom(address,address,uint256,bytes)": "infinite",
            "setApprovalForAll(address,bool)": "26745",
            "supportsInterface(bytes4)": "infinite",
            "symbol()": "infinite",
            "tokenURI(uint256)": "infinite",
            "transferFrom(address,address,uint256)": "infinite",
            "transferOwnership(address)": "28443"
        }
    }
}