{
    "contractName": "NFTMarket",
    "abi": [
        {
            "inputs": [
                {
                    "internalType": "contract IERC20",
                    "name": "_paymentToken",
                    "type": "address"
                }
            ],
            "stateMutability": "nonpayable",
            "type": "constructor"
        },
        {
            "anonymous": false,
            "inputs": [
                {
                    "indexed": true,
                    "internalType": "address",
                    "name": "buyer",
                    "type": "address"
                },
                {
                    "indexed": true,
                    "internalType": "address",
                    "name": "nftContract",
                    "type": "address"
                },
                {
                    "indexed": true,
                    "internalType": "uint256",
                    "name": "tokenId",
                    "type": "uint256"
                }
            ],
            "name": "NFTBought",
            "type": "event"
        },
        {
            "anonymous": false,
            "inputs": [
                {
                    "indexed": true,
                    "internalType": "address",
                    "name": "seller",
                    "type": "address"
                },
                {
                    "indexed": true,
                    "internalType": "address",
                    "name": "nftContract",
                    "type": "address"
                },
                {
                    "indexed": true,
                    "internalType": "uint256",
                    "name": "tokenId",
                    "type": "uint256"
                },
                {
                    "indexed": false,
                    "internalType": "uint256",
                    "name": "price",
                    "type": "uint256"
                }
            ],
            "name": "NFTListed",
            "type": "event"
        },
        {
            "inputs": [
                {
                    "internalType": "address",
                    "name": "nftContract",
                    "type": "address"
                },
                {
                    "internalType": "uint256",
                    "name": "tokenId",
                    "type": "uint256"
                }
            ],
            "name": "buyNFT",
            "outputs": [
                {
                    "internalType": "bool",
                    "name": "",
                    "type": "bool"
                }
            ],
            "stateMutability": "nonpayable",
            "type": "function"
        },
        {
            "inputs": [
                {
                    "internalType": "bytes",
                    "name": "data",
                    "type": "bytes"
                }
            ],
            "name": "decodeNFTInfo",
            "outputs": [
                {
                    "internalType": "address",
                    "name": "",
                    "type": "address"
                },
                {
                    "internalType": "uint256",
                    "name": "",
                    "type": "uint256"
                }
            ],
            "stateMutability": "pure",
            "type": "function"
        },
        {
            "inputs": [
                {
                    "internalType": "address",
                    "name": "nftContract",
                    "type": "address"
                },
                {
                    "internalType": "uint256",
                    "name": "tokenId",
                    "type": "uint256"
                }
            ],
            "name": "getNFTPrice",
            "outputs": [
                {
                    "internalType": "uint256",
                    "name": "",
                    "type": "uint256"
                }
            ],
            "stateMutability": "view",
            "type": "function"
        },
        {
            "inputs": [
                {
                    "internalType": "address",
                    "name": "nftContract",
                    "type": "address"
                },
                {
                    "internalType": "uint256",
                    "name": "tokenId",
                    "type": "uint256"
                },
                {
                    "internalType": "uint256",
                    "name": "price",
                    "type": "uint256"
                }
            ],
            "name": "list",
            "outputs": [
                {
                    "internalType": "bool",
                    "name": "",
                    "type": "bool"
                }
            ],
            "stateMutability": "nonpayable",
            "type": "function"
        },
        {
            "inputs": [
                {
                    "internalType": "address",
                    "name": "buyer",
                    "type": "address"
                },
                {
                    "internalType": "uint256",
                    "name": "amount",
                    "type": "uint256"
                },
                {
                    "internalType": "bytes",
                    "name": "data",
                    "type": "bytes"
                }
            ],
            "name": "onTransferReceived",
            "outputs": [
                {
                    "internalType": "bool",
                    "name": "",
                    "type": "bool"
                }
            ],
            "stateMutability": "nonpayable",
            "type": "function"
        }
    ],
    "bytecode": "608060405234801561000f575f80fd5b50604051610ab6380380610ab683398101604081905261002e91610053565b600180546001600160a01b0319166001600160a01b0392909216919091179055610080565b5f60208284031215610063575f80fd5b81516001600160a01b0381168114610079575f80fd5b9392505050565b610a298061008d5f395ff3fe608060405234801561000f575f80fd5b5060043610610055575f3560e01c80634386bcb814610059578063a82ba76f14610081578063bc24179314610094578063dda342bb146100b5578063fe83ae8f146100c8575b5f80fd5b61006c610067366004610884565b6100fa565b60405190151581526020015b60405180910390f35b61006c61008f3660046108dc565b6102d2565b6100a76100a23660046108dc565b61052b565b604051908152602001610078565b61006c6100c3366004610906565b610586565b6100db6100d6366004610938565b610810565b604080516001600160a01b039093168352602083019190915201610078565b5f805f6101078585610810565b90925090505f610117838361052b565b9050808710156101655760405162461bcd60e51b81526020600482015260146024820152733430bb329037379032b737bab3b4103a37b5b2b760611b60448201526064015b60405180910390fd5b6001546001600160a01b038481165f908152602081815260408083208784529091529081902054905163a9059cbb60e01b81529082166004820152602481018a905291169063a9059cbb906044016020604051808303815f875af11580156101cf573d5f803e3d5ffd5b505050506040513d601f19601f820116820180604052508101906101f39190610977565b506040516323b872dd60e01b81526001600160a01b038416906323b872dd906102249030908c90879060040161099d565b5f604051808303815f87803b15801561023b575f80fd5b505af115801561024d573d5f803e3d5ffd5b505050506001600160a01b038381165f8181526020818152604080832087845290915280822080546001600160a01b031990811682556001820180549091169055600281018390556003018290555185938c16917fcd1344421cbf20fee1675696dc29224085bc8d25b5d4e70fc4fb7a68c76af49491a4506001979650505050505050565b6001600160a01b038281165f90815260208181526040808320858452825280832081516080810183528154861681526001808301548716948201949094526002820154818401526003909101546060820152915490516370a0823160e01b815233600482015292939192849291909116906370a0823190602401602060405180830381865afa158015610367573d5f803e3d5ffd5b505050506040513d601f19601f8201168201806040525081019061038b91906109c1565b9050816060015181116103d95760405162461bcd60e51b815260206004820152601660248201527568617665206e6f20656e6f7567682062616c616e636560501b604482015260640161015c565b600154825160608401516040516323b872dd60e01b81526001600160a01b03909316926323b872dd9261041092339260040161099d565b6020604051808303815f875af115801561042c573d5f803e3d5ffd5b505050506040513d601f19601f820116820180604052508101906104509190610977565b5081516040516323b872dd60e01b81526001600160a01b038716916323b872dd9161048291903390899060040161099d565b5f604051808303815f87803b158015610499575f80fd5b505af11580156104ab573d5f803e3d5ffd5b5050506001600160a01b0386165f8181526020818152604080832089845290915280822080546001600160a01b031990811682556001820180549091169055600281018390556003018290555187935033917fcd1344421cbf20fee1675696dc29224085bc8d25b5d4e70fc4fb7a68c76af49491a4506001949350505050565b6001600160a01b039182165f9081526020818152604080832093835292815290829020825160808101845281548516815260018201549094169184019190915260028101549183019190915260030154606090910181905290565b5f8082116105d65760405162461bcd60e51b815260206004820152601d60248201527f6e6674207072696365206d7573742067726561746572207468616e2030000000604482015260640161015c565b6040516331a9108f60e11b8152600481018490525f906001600160a01b03861690636352211e90602401602060405180830381865afa15801561061b573d5f803e3d5ffd5b505050506040513d601f19601f8201168201806040525081019061063f91906109d8565b9050336001600160a01b038216146106895760405162461bcd60e51b815260206004820152600d60248201526c3737ba1037333a1037bbb732b960991b604482015260640161015c565b6040516323b872dd60e01b81526001600160a01b038616906323b872dd906106b99033903090899060040161099d565b5f604051808303815f87803b1580156106d0575f80fd5b505af11580156106e2573d5f803e3d5ffd5b505050506040518060800160405280336001600160a01b03168152602001866001600160a01b03168152602001858152602001848152505f80876001600160a01b03166001600160a01b031681526020019081526020015f205f8681526020019081526020015f205f820151815f015f6101000a8154816001600160a01b0302191690836001600160a01b031602179055506020820151816001015f6101000a8154816001600160a01b0302191690836001600160a01b03160217905550604082015181600201556060820151816003015590505083856001600160a01b0316336001600160a01b03167fbeab3a2bb824b124a8a1eb465eec003338d61b414db132d37e9b3a984fdcf010866040516107fd91815260200190565b60405180910390a4506001949350505050565b5f808080610820858701876108dc565b909450925050505b9250929050565b6001600160a01b0381168114610843575f80fd5b50565b5f8083601f840112610856575f80fd5b50813567ffffffffffffffff81111561086d575f80fd5b602083019150836020828501011115610828575f80fd5b5f805f8060608587031215610897575f80fd5b84356108a28161082f565b935060208501359250604085013567ffffffffffffffff8111156108c4575f80fd5b6108d087828801610846565b95989497509550505050565b5f80604083850312156108ed575f80fd5b82356108f88161082f565b946020939093013593505050565b5f805f60608486031215610918575f80fd5b83356109238161082f565b95602085013595506040909401359392505050565b5f8060208385031215610949575f80fd5b823567ffffffffffffffff81111561095f575f80fd5b61096b85828601610846565b90969095509350505050565b5f60208284031215610987575f80fd5b81518015158114610996575f80fd5b9392505050565b6001600160a01b039384168152919092166020820152604081019190915260600190565b5f602082840312156109d1575f80fd5b5051919050565b5f602082840312156109e8575f80fd5b81516109968161082f56fea26469706673582212203959d884f0169ee4cae307111dafa806667ee2eab8b947f20ad46668e673f2cd64736f6c63430008140033",
    "sourcePath": "/Users/chenjiawei/Learning/Program/web3/web3-study/basis/src/sol/NFT/NFTMarket.sol",
    "compiler": {
        "name": "solc",
        "version": "0.8.20+commit.a1b79de6"
    },
    "functionHashes": {
        "buyNFT(address,uint256)": "a82ba76f",
        "decodeNFTInfo(bytes)": "fe83ae8f",
        "getNFTPrice(address,uint256)": "bc241793",
        "list(address,uint256,uint256)": "dda342bb",
        "onTransferReceived(address,uint256,bytes)": "4386bcb8"
    },
    "gasEstimates": {
        "creation": {
            "codeDepositCost": "520200",
            "executionCost": "infinite",
            "totalCost": "infinite"
        },
        "external": {
            "buyNFT(address,uint256)": "infinite",
            "decodeNFTInfo(bytes)": "infinite",
            "getNFTPrice(address,uint256)": "9108",
            "list(address,uint256,uint256)": "infinite",
            "onTransferReceived(address,uint256,bytes)": "infinite"
        },
        "internal": {
            "isContract(address)": "infinite"
        }
    }
}