{
    "contractName": "NFTToken",
    "abi": [
        {
            "inputs": [],
            "stateMutability": "nonpayable",
            "type": "constructor"
        },
        {
            "inputs": [
                {
                    "internalType": "address",
                    "name": "spender",
                    "type": "address"
                },
                {
                    "internalType": "uint256",
                    "name": "allowance",
                    "type": "uint256"
                },
                {
                    "internalType": "uint256",
                    "name": "needed",
                    "type": "uint256"
                }
            ],
            "name": "ERC20InsufficientAllowance",
            "type": "error"
        },
        {
            "inputs": [
                {
                    "internalType": "address",
                    "name": "sender",
                    "type": "address"
                },
                {
                    "internalType": "uint256",
                    "name": "balance",
                    "type": "uint256"
                },
                {
                    "internalType": "uint256",
                    "name": "needed",
                    "type": "uint256"
                }
            ],
            "name": "ERC20InsufficientBalance",
            "type": "error"
        },
        {
            "inputs": [
                {
                    "internalType": "address",
                    "name": "approver",
                    "type": "address"
                }
            ],
            "name": "ERC20InvalidApprover",
            "type": "error"
        },
        {
            "inputs": [
                {
                    "internalType": "address",
                    "name": "receiver",
                    "type": "address"
                }
            ],
            "name": "ERC20InvalidReceiver",
            "type": "error"
        },
        {
            "inputs": [
                {
                    "internalType": "address",
                    "name": "sender",
                    "type": "address"
                }
            ],
            "name": "ERC20InvalidSender",
            "type": "error"
        },
        {
            "inputs": [
                {
                    "internalType": "address",
                    "name": "spender",
                    "type": "address"
                }
            ],
            "name": "ERC20InvalidSpender",
            "type": "error"
        },
        {
            "anonymous": false,
            "inputs": [
                {
                    "indexed": true,
                    "internalType": "address",
                    "name": "owner",
                    "type": "address"
                },
                {
                    "indexed": true,
                    "internalType": "address",
                    "name": "spender",
                    "type": "address"
                },
                {
                    "indexed": false,
                    "internalType": "uint256",
                    "name": "value",
                    "type": "uint256"
                }
            ],
            "name": "Approval",
            "type": "event"
        },
        {
            "anonymous": false,
            "inputs": [
                {
                    "indexed": true,
                    "internalType": "address",
                    "name": "from",
                    "type": "address"
                },
                {
                    "indexed": true,
                    "internalType": "address",
                    "name": "to",
                    "type": "address"
                },
                {
                    "indexed": false,
                    "internalType": "uint256",
                    "name": "amout",
                    "type": "uint256"
                }
            ],
            "name": "Trade",
            "type": "event"
        },
        {
            "anonymous": false,
            "inputs": [
                {
                    "indexed": true,
                    "internalType": "address",
                    "name": "from",
                    "type": "address"
                },
                {
                    "indexed": true,
                    "internalType": "address",
                    "name": "to",
                    "type": "address"
                },
                {
                    "indexed": false,
                    "internalType": "uint256",
                    "name": "value",
                    "type": "uint256"
                }
            ],
            "name": "Transfer",
            "type": "event"
        },
        {
            "inputs": [
                {
                    "internalType": "address",
                    "name": "owner",
                    "type": "address"
                },
                {
                    "internalType": "address",
                    "name": "spender",
                    "type": "address"
                }
            ],
            "name": "allowance",
            "outputs": [
                {
                    "internalType": "uint256",
                    "name": "",
                    "type": "uint256"
                }
            ],
            "stateMutability": "view",
            "type": "function"
        },
        {
            "inputs": [
                {
                    "internalType": "address",
                    "name": "spender",
                    "type": "address"
                },
                {
                    "internalType": "uint256",
                    "name": "value",
                    "type": "uint256"
                }
            ],
            "name": "approve",
            "outputs": [
                {
                    "internalType": "bool",
                    "name": "",
                    "type": "bool"
                }
            ],
            "stateMutability": "nonpayable",
            "type": "function"
        },
        {
            "inputs": [
                {
                    "internalType": "address",
                    "name": "account",
                    "type": "address"
                }
            ],
            "name": "balanceOf",
            "outputs": [
                {
                    "internalType": "uint256",
                    "name": "",
                    "type": "uint256"
                }
            ],
            "stateMutability": "view",
            "type": "function"
        },
        {
            "inputs": [],
            "name": "decimals",
            "outputs": [
                {
                    "internalType": "uint8",
                    "name": "",
                    "type": "uint8"
                }
            ],
            "stateMutability": "view",
            "type": "function"
        },
        {
            "inputs": [],
            "name": "name",
            "outputs": [
                {
                    "internalType": "string",
                    "name": "",
                    "type": "string"
                }
            ],
            "stateMutability": "view",
            "type": "function"
        },
        {
            "inputs": [],
            "name": "symbol",
            "outputs": [
                {
                    "internalType": "string",
                    "name": "",
                    "type": "string"
                }
            ],
            "stateMutability": "view",
            "type": "function"
        },
        {
            "inputs": [],
            "name": "totalSupply",
            "outputs": [
                {
                    "internalType": "uint256",
                    "name": "",
                    "type": "uint256"
                }
            ],
            "stateMutability": "view",
            "type": "function"
        },
        {
            "inputs": [
                {
                    "internalType": "address",
                    "name": "to",
                    "type": "address"
                },
                {
                    "internalType": "uint256",
                    "name": "value",
                    "type": "uint256"
                }
            ],
            "name": "transfer",
            "outputs": [
                {
                    "internalType": "bool",
                    "name": "",
                    "type": "bool"
                }
            ],
            "stateMutability": "nonpayable",
            "type": "function"
        },
        {
            "inputs": [
                {
                    "internalType": "address",
                    "name": "recipient",
                    "type": "address"
                },
                {
                    "internalType": "uint256",
                    "name": "amount",
                    "type": "uint256"
                },
                {
                    "internalType": "bytes",
                    "name": "data",
                    "type": "bytes"
                }
            ],
            "name": "transferAndCall",
            "outputs": [
                {
                    "internalType": "bool",
                    "name": "",
                    "type": "bool"
                }
            ],
            "stateMutability": "nonpayable",
            "type": "function"
        },
        {
            "inputs": [
                {
                    "internalType": "address",
                    "name": "from",
                    "type": "address"
                },
                {
                    "internalType": "address",
                    "name": "to",
                    "type": "address"
                },
                {
                    "internalType": "uint256",
                    "name": "value",
                    "type": "uint256"
                }
            ],
            "name": "transferFrom",
            "outputs": [
                {
                    "internalType": "bool",
                    "name": "",
                    "type": "bool"
                }
            ],
            "stateMutability": "nonpayable",
            "type": "function"
        }
    ],
    "bytecode": "608060405234801562000010575f80fd5b506040518060400160405280600781526020016604d7945524332360cc1b81525060405180604001604052806003815260200162434a5760e81b81525081600390816200005e9190620002c0565b5060046200006d8282620002c0565b505050620000a63362000085620000ac60201b60201c565b6200009290600a62000497565b620000a090612710620004ae565b620000b1565b620004de565b601290565b6001600160a01b038216620000e05760405163ec442f0560e01b81525f60048201526024015b60405180910390fd5b620000ed5f8383620000f1565b5050565b6001600160a01b0383166200011f578060025f828254620001139190620004c8565b90915550620001919050565b6001600160a01b0383165f9081526020819052604090205481811015620001735760405163391434e360e21b81526001600160a01b03851660048201526024810182905260448101839052606401620000d7565b6001600160a01b0384165f9081526020819052604090209082900390555b6001600160a01b038216620001af57600280548290039055620001cd565b6001600160a01b0382165f9081526020819052604090208054820190555b816001600160a01b0316836001600160a01b03167fddf252ad1be2c89b69c2b068fc378daa952ba7f163c4a11628f55a4df523b3ef836040516200021391815260200190565b60405180910390a3505050565b634e487b7160e01b5f52604160045260245ffd5b600181811c908216806200024957607f821691505b6020821081036200026857634e487b7160e01b5f52602260045260245ffd5b50919050565b601f821115620002bb575f81815260208120601f850160051c81016020861015620002965750805b601f850160051c820191505b81811015620002b757828155600101620002a2565b5050505b505050565b81516001600160401b03811115620002dc57620002dc62000220565b620002f481620002ed845462000234565b846200026e565b602080601f8311600181146200032a575f8415620003125750858301515b5f19600386901b1c1916600185901b178555620002b7565b5f85815260208120601f198616915b828110156200035a5788860151825594840194600190910190840162000339565b50858210156200037857878501515f19600388901b60f8161c191681555b5050505050600190811b01905550565b634e487b7160e01b5f52601160045260245ffd5b600181815b80851115620003dc57815f1904821115620003c057620003c062000388565b80851615620003ce57918102915b93841c9390800290620003a1565b509250929050565b5f82620003f45750600162000491565b816200040257505f62000491565b81600181146200041b5760028114620004265762000446565b600191505062000491565b60ff8411156200043a576200043a62000388565b50506001821b62000491565b5060208310610133831016604e8410600b84101617156200046b575081810a62000491565b6200047783836200039c565b805f19048211156200048d576200048d62000388565b0290505b92915050565b5f620004a760ff841683620003e4565b9392505050565b808202811582820484141762000491576200049162000388565b8082018082111562000491576200049162000388565b61091c80620004ec5f395ff3fe608060405234801561000f575f80fd5b506004361061009b575f3560e01c80634000aea0116100635780634000aea01461011457806370a082311461012757806395d89b411461014f578063a9059cbb14610157578063dd62ed3e1461016a575f80fd5b806306fdde031461009f578063095ea7b3146100bd57806318160ddd146100e057806323b872dd146100f2578063313ce56714610105575b5f80fd5b6100a76101a2565b6040516100b49190610691565b60405180910390f35b6100d06100cb3660046106f7565b610232565b60405190151581526020016100b4565b6002545b6040519081526020016100b4565b6100d061010036600461071f565b61024b565b604051601281526020016100b4565b6100d0610122366004610758565b61026e565b6100e46101353660046107d8565b6001600160a01b03165f9081526020819052604090205490565b6100a7610393565b6100d06101653660046106f7565b6103a2565b6100e46101783660046107f8565b6001600160a01b039182165f90815260016020908152604080832093909416825291909152205490565b6060600380546101b190610829565b80601f01602080910402602001604051908101604052809291908181526020018280546101dd90610829565b80156102285780601f106101ff57610100808354040283529160200191610228565b820191905f5260205f20905b81548152906001019060200180831161020b57829003601f168201915b5050505050905090565b5f3361023f8185856103af565b60019150505b92915050565b5f336102588582856103c1565b61026385858561043c565b506001949350505050565b5f6001600160a01b0385166102bc5760405162461bcd60e51b815260206004820152600f60248201526e696e76616c6964206164647265737360881b60448201526064015b60405180910390fd5b6102c733868661043c565b843b1561034857604051630870d79760e31b81526001600160a01b03861690634386bcb890610300903390889088908890600401610861565b6020604051808303815f875af115801561031c573d5f803e3d5ffd5b505050506040513d601f19601f8201168201806040525081019061034091906108a8565b610348575f80fd5b6040518481526001600160a01b0386169033907f0d49f50d6dd629f4e4070731edb0abd680823ab1cbd43d89590522da4b5b32e79060200160405180910390a3506001949350505050565b6060600480546101b190610829565b5f3361023f81858561043c565b6103bc8383836001610499565b505050565b6001600160a01b038381165f908152600160209081526040808320938616835292905220545f198114610436578181101561042857604051637dc7a0d960e11b81526001600160a01b038416600482015260248101829052604481018390526064016102b3565b61043684848484035f610499565b50505050565b6001600160a01b03831661046557604051634b637e8f60e11b81525f60048201526024016102b3565b6001600160a01b03821661048e5760405163ec442f0560e01b81525f60048201526024016102b3565b6103bc83838361056b565b6001600160a01b0384166104c25760405163e602df0560e01b81525f60048201526024016102b3565b6001600160a01b0383166104eb57604051634a1406b160e11b81525f60048201526024016102b3565b6001600160a01b038085165f908152600160209081526040808320938716835292905220829055801561043657826001600160a01b0316846001600160a01b03167f8c5be1e5ebec7d5bd14f71427d1e84f3dd0314c0f7b2291e5b200ac8c7c3b9258460405161055d91815260200190565b60405180910390a350505050565b6001600160a01b038316610595578060025f82825461058a91906108c7565b909155506106059050565b6001600160a01b0383165f90815260208190526040902054818110156105e75760405163391434e360e21b81526001600160a01b038516600482015260248101829052604481018390526064016102b3565b6001600160a01b0384165f9081526020819052604090209082900390555b6001600160a01b0382166106215760028054829003905561063f565b6001600160a01b0382165f9081526020819052604090208054820190555b816001600160a01b0316836001600160a01b03167fddf252ad1be2c89b69c2b068fc378daa952ba7f163c4a11628f55a4df523b3ef8360405161068491815260200190565b60405180910390a3505050565b5f6020808352835180828501525f5b818110156106bc578581018301518582016040015282016106a0565b505f604082860101526040601f19601f8301168501019250505092915050565b80356001600160a01b03811681146106f2575f80fd5b919050565b5f8060408385031215610708575f80fd5b610711836106dc565b946020939093013593505050565b5f805f60608486031215610731575f80fd5b61073a846106dc565b9250610748602085016106dc565b9150604084013590509250925092565b5f805f806060858703121561076b575f80fd5b610774856106dc565b935060208501359250604085013567ffffffffffffffff80821115610797575f80fd5b818701915087601f8301126107aa575f80fd5b8135818111156107b8575f80fd5b8860208285010111156107c9575f80fd5b95989497505060200194505050565b5f602082840312156107e8575f80fd5b6107f1826106dc565b9392505050565b5f8060408385031215610809575f80fd5b610812836106dc565b9150610820602084016106dc565b90509250929050565b600181811c9082168061083d57607f821691505b60208210810361085b57634e487b7160e01b5f52602260045260245ffd5b50919050565b6001600160a01b0385168152602081018490526060604082018190528101829052818360808301375f818301608090810191909152601f909201601f191601019392505050565b5f602082840312156108b8575f80fd5b815180151581146107f1575f80fd5b8082018082111561024557634e487b7160e01b5f52601160045260245ffdfea2646970667358221220cdd66e8326cea940725de5738a3fad5232b2046709c341de8ac3c25af82e97d264736f6c63430008140033",
    "sourcePath": "/Users/chenjiawei/Learning/Program/web3/web3-study/basis/src/sol/NFT/NFTToken.sol",
    "compiler": {
        "name": "solc",
        "version": "0.8.20+commit.a1b79de6"
    },
    "functionHashes": {
        "allowance(address,address)": "dd62ed3e",
        "approve(address,uint256)": "095ea7b3",
        "balanceOf(address)": "70a08231",
        "decimals()": "313ce567",
        "name()": "06fdde03",
        "symbol()": "95d89b41",
        "totalSupply()": "18160ddd",
        "transfer(address,uint256)": "a9059cbb",
        "transferAndCall(address,uint256,bytes)": "4000aea0",
        "transferFrom(address,address,uint256)": "23b872dd"
    },
    "gasEstimates": {
        "creation": {
            "codeDepositCost": "466400",
            "executionCost": "infinite",
            "totalCost": "infinite"
        },
        "external": {
            "allowance(address,address)": "infinite",
            "approve(address,uint256)": "24735",
            "balanceOf(address)": "2559",
            "decimals()": "265",
            "name()": "infinite",
            "symbol()": "infinite",
            "totalSupply()": "2325",
            "transfer(address,uint256)": "51282",
            "transferAndCall(address,uint256,bytes)": "infinite",
            "transferFrom(address,address,uint256)": "infinite"
        },
        "internal": {
            "decodePrice(bytes32)": "infinite",
            "isContract(address)": "infinite"
        }
    }
}